:020000040000FA
:100000000C9462000C948A000C948A000C948A0070
:100010000C948A000C948A000C948A000C948A0038
:100020000C948A000C948A000C948A000C948A0028
:100030000C948A000C948A000C948A000C948A0018
:100040000C94F6090C948A000C94C4090C949E0933
:100050000C948A000C948A000C948A000C948A00F8
:100060000C94400A0C948A00000000002400270031
:100070002A0000000000250028002B0000000008D6
:10008000000201000003040700000000000000005F
:1000900000000000230026002900040404040404D6
:1000A0000404020202020202030303030303010227
:1000B00004081020408001020408102001020408F6
:1000C00010205F0B11241FBECFEFD8E0DEBFCDBFE5
:1000D00011E0A0E0B1E0EAEFF3E202C005900D927A
:1000E000A03BB107D9F723E0A0EBB1E001C01D921E
:1000F000AD36B207E1F710E0C2E6D0E004C02197C8
:10010000FE010E94F511C136D107C9F70E94F80B14
:100110000C94FB110C940000CF92DF92EF92FF92AF
:10012000CF93DF93B0914F03A0E08111AB2F80916B
:10013000500390E0880F991FAC0140575F4FC0906B
:100140005503D0905603E0905703F090580330E0E9
:1001500020E0FA01C591D491E881B90190E080E0F6
:10016000EB23EA130AC02F5F3F4F6C157D058E0508
:100170009F0578F36FEF7FEFCB01DF91CF91FF9079
:10018000EF90DF90CF90089508950895DC01ED91F0
:10019000FC910190F081E02D0994AF92BF92CF9233
:1001A000DF92EF92FF920F931F93CF93DF936C0137
:1001B0007B018B01040F151FEB015E01AE18BF0818
:1001C000C017D10759F06991D601ED91FC910190CA
:1001D000F081E02DC6010995892B79F7C501DF91E2
:1001E000CF911F910F91FF90EF90DF90CF90BF9034
:1001F000AF900895FC01538D448D252F30E0842F5E
:1002000090E0821B930B541710F0CF96089501973E
:100210000895FC01918D828D981761F0A28DAE0F2B
:10022000BF2FB11D5D968C91928D9F5F9F73928FB2
:1002300090E008958FEF9FEF0895FC01918D828DDE
:10024000981731F0828DE80FF11D858D90E00895AB
:100250008FEF9FEF0895FC01918D228D892F90E003
:10026000805C9F4F821B91098F739927089581E8C5
:1002700092E00E942B0121E0892B09F420E0822FDB
:10028000089580E090E0892B29F00E9437018111C8
:100290000C9400000895FC01A48DA80FB92FB11D86
:1002A000A35ABF4F2C91848D90E001968F739927AC
:1002B000848FA689B7892C93A089B1898C9183708A
:1002C00080648C93938D848D981306C00288F38983
:1002D000E02D80818F7D80830895EF92FF920F93B0
:1002E0001F93CF93DF93EC0181E0888F9B8D8C8DE2
:1002F00098131AC0E889F989808185FF15C09FB7D6
:10030000F894EE89FF896083E889F9898081837098
:10031000806480839FBF81E090E0DF91CF911F9147
:100320000F91FF90EF900895F62E0B8D10E00F5F68
:100330001F4F0F731127E02E8C8D8E110CC00FB63E
:1003400007FCFACFE889F989808185FFF5CFCE01D6
:100350000E944B01F1CFEB8DEC0FFD2FF11DE35A05
:10036000FF4FF0829FB7F8940B8FEA89FB89808159
:100370008062CFCFCF93DF93EC01888D8823B9F0D3
:10038000AA89BB89E889F9898C9185FD03C08081A0
:1003900086FD0DC00FB607FCF7CF8C9185FFF2CF1D
:1003A000808185FFEDCFCE010E944B01E9CFDF9127
:1003B000CF910895833081F028F4813099F0823014
:1003C000A9F008958730A9F08830C9F08430B1F4DD
:1003D000809180008F7D03C0809180008F77809313
:1003E0008000089584B58F7784BD089584B58F7D8E
:1003F000FBCF8091B0008F778093B00008958091FB
:10040000B0008F7DF9CF1F93CF93DF93282F30E07B
:10041000F901E458FF4F8491F901E255FF4FD4915F
:10042000F901E656FF4FC491CC23A9F0162F811194
:100430000E94DA01EC2FF0E0EE0FFF1FEE58FF4FA5
:10044000A591B4918FB7F894EC91111108C0D09593
:10045000DE23DC938FBFDF91CF911F910895DE2BB8
:10046000F8CFCF93DF9390E0FC01E255FF4F24914A
:1004700086569F4FFC0184918823C9F090E0880F35
:10048000991FFC01E859FF4FA591B491FC01EE586A
:10049000FF4FC591D49161110DC09FB7F8948C9115
:1004A000209582238C938881282328839FBFDF9106
:1004B000CF910895623051F49FB7F8943C91822F08
:1004C000809583238C93E8812E2BEFCF8FB7F89400
:1004D000EC912E2B2C938FBFEACF3FB7F8948091ED
:1004E000640290916502A0916602B091670226B500
:1004F000A89B05C02F3F19F00196A11DB11D3FBF5C
:10050000BA2FA92F982F8827BC01CD01620F711D2A
:10051000811D911D42E0660F771F881F991F4A9524
:10052000D1F708958F929F92AF92BF92CF92DF92B0
:10053000EF92FF924B015C010E946D026B017C0106
:100540000E946D026C197D098E099F09683E7340F7
:1005500081059105A8F321E0821A9108A108B1084C
:1005600088EEC80E83E0D81EE11CF11C81149104B2
:10057000A104B10429F7FF90EF90DF90CF90BF90D6
:10058000AF909F908F900895CF92DF92EF92FF925D
:100590000F931F93CF93DF93CDB7DEB7C054D140F5
:1005A0000FB6F894DEBF0FBECDBF2FB7F894809181
:1005B0007D0290917E02A0917F02B09180022FBFB8
:1005C0004091510350915203609153037091540331
:1005D0008C019D01041B150B260B370BB901A801DB
:1005E000403D57406105710590F480915903C05C0E
:1005F000DE4F0FB6F894DEBF0FBECDBFDF91CF91B7
:100600001F910F91FF90EF90DF90CF90089580930E
:10061000510390935203A0935303B0935403109249
:100620004C0310924B0310924A031092490310920C
:10063000480362E080914D030E94310261E070E066
:1006400080E090E00E94920261E080914D030E9460
:10065000310260E080914D030E94030280914E03BD
:100660008551823020F58BE291E10197F1F762E04C
:1006700080914D030E94310280915A0390E08230B4
:10068000910538F0880F991F880F991F05970197DA
:10069000F1F7F89480E00E948C006F3F7F4F8F4FFE
:1006A0009F4F61F410925903789480E0A0CF64E1E9
:1006B00070E080E090E00E949202D9CF81E00E9439
:1006C0008C006F3F7F4F8F4F9F4F61F38E010F5F05
:1006D0001F4F6E018FEBC81A8EEFD80A780180E0A9
:1006E0000E948C00F701608371838283938381E091
:1006F0000E948C00F7016483758386839783F8E0FA
:10070000EF0EF11CEC14FD0451F7789430E020E07A
:10071000F801C080D180E280F380448155816681F8
:100720007781FFEFCF16DF06EF06FF0631F04F3F70
:100730008FEF58076807780719F410925903B5CF5F
:10074000F90183E0F595E7958A95E1F7E85BFC4FC1
:100750008081880FC416D506E606F70610F180835F
:100760002F5F3F4F085F1F4F2832310589F64091B8
:100770004C032091480380914903280F3327331FEE
:1007800080914A03280F311D80914B03820F932FD4
:10079000911D99274817190681F681E08093590326
:1007A00026CF8160DCCF2091F201260F3327331F43
:1007B00021323105ECF420913B02FC0190E080E015
:1007C000243069F082E00895A091F2012191AC01FA
:1007D0004E525E4FA40FB52FB11D2C930196861774
:1007E00098F38091F201680F6093F20180E0089520
:1007F00081E0089510923B0281E080933A021092CA
:10080000150261E082E10E94030261E083E10E943F
:100810000302E9EBF0E080818E7F808380818D7F11
:10082000808388E48093B80085E48093BC000895B9
:10083000CF93DF9391E09093D1018823B9F0C091D9
:10084000B800D091BA008091BC008A7B8093BC0034
:1008500060E082E10E94030260E083E10E94030203
:100860000E94FA03D093BA00C093B800DF91CF91F1
:1008700008950895E0916F0280916E02E81730F4B8
:10088000F0E0EF54FE4F808190E008958FEF9FEFEE
:10089000089590916F0280916E022FEF3FEF9817AD
:1008A00048F4E92FF0E0EF54FE4F208130E09F5FE5
:1008B00090936F02C901089580916E0290916F022A
:1008C000891B990B0895CF92DF92EF92FF920F93BD
:1008D0001F93CF93DF937C01CB018A0120914102CA
:1008E000222389F0EB016B01C40ED51ECC15DD056A
:1008F00069F06991D701ED91FC910190F081E02DB3
:10090000C7010995F3CF642F0E94D303C801DF917B
:10091000CF911F910F91FF90EF90DF90CF900895AE
:10092000CF93DF931F92CDB7DEB769832091410249
:100930002223F9F020916C02203258F021E030E0BF
:10094000FC013383228390E080E00F90DF91CF9110
:10095000089580916D02E82FF0E0EE5BFD4F9981E4
:1009600090838F5F80936D0280936C0281E090E0B2
:10097000ECCF61E0CE0101960E94D303F7CFCF9276
:10098000DF92EF92FF920F931F93CF93DF93FC01BF
:10099000C48121E020934102C093620210926D0253
:1009A00010926C028385682B8EE193E00E94900484
:1009B000D0916C02D13208F092C00E946D026B019E
:1009C0007C0180913B02811165C082E080933B02F3
:1009D00081E080933A028FEF8093390210923802BF
:1009E000D0933702A2E4B2E0E7E1F2E080E0D8136E
:1009F00085C01092160280911602CC0FC82BC093AE
:100A0000160280911502813009F07CC01092150207
:100A10000E946D026B017C01809116028093BB00E5
:100A200080913D0290913E02A0913F02B091400220
:100A3000892B8A2B8B2B99F00E946D0200913D022D
:100A400010913E0220913F02309140026C197D09C5
:100A50008E099F090617170728073907E0F18091CB
:100A6000BC0083FDD9CF85EC8093BC000E946D0251
:100A70006B017C0180913B02823009F445C080917A
:100A800039028F3F61F180913902803241F18091CA
:100A9000390225C080913D0290913E02A0913F0213
:100AA000B0914002892B8A2B8B2B09F48ACF0E94AC
:100AB0006D0200913D0210913E0220913F02309163
:100AC00040026C197D098E099F0906171707280730
:100AD000390708F076CF80913C020E9418041092EA
:100AE0006D0210926C0210924102DF91CF911F9122
:100AF0000F91FF90EF90DF90CF9008959D9191938B
:100B00008F5F75CF85EEB0CF80913D0290913E0210
:100B1000A0913F02B0914002892B8A2B8B2B09F4C4
:100B2000A9CF0E946D0200913D0210913E022091DA
:100B30003F02309140026C197D098E099F0906170A
:100B400017072807390708F095CFC5CFCF92DF9256
:100B5000EF92FF920F931F93CF93DF93C3E8D0E000
:100B600005EB10E091EAE92E90E0F92EFE01849168
:100B7000F801C490F701D490DD2071F081110E943A
:100B8000DA01ED2DF0E0EE0FFF1FE057FF4FA591CA
:100B9000B4918C91C82251F7DF91CF911F910F91A1
:100BA000FF90EF90DF90CF900895CF93DF931F9247
:100BB000CDB7DEB7898389818EBD00000DB407FEF5
:100BC000FDCF8EB52AE030E0000021503109E1F779
:100BD0000F90DF91CF910895CF93DF93D82FC62F39
:100BE00080EE0E94D50583E290E00197F1F78D2F0A
:100BF0000E94D5058C2F0E94D505C11105C08EEE2F
:100C0000DF91CF910C94D505DF91CF910895DF92BC
:100C1000EF92FF920F931F93CF93DF937C01C62F28
:100C2000D42E862F0E94D5058701D0E0C8018E19E9
:100C30009F098C179D0734F4F80181918F010E9460
:100C4000D505F4CFF1E0DF120AC08EEEDF91CF912F
:100C50001F910F91FF90EF90DF900C94D505DF91DD
:100C6000CF911F910F91FF90EF90DF900895CF9358
:100C7000DF93EC018FEF0E94D50588838AE090E036
:100C800000000197E9F7DF91CF9108950F931F932B
:100C9000CF93DF931F92CDB7DEB709EE13E0198231
:100CA000CE0101960E94370629812F3E81F0015026
:100CB000110911F0203E99F781E090E0203E09F003
:100CC00080E00F90DF91CF911F910F9108958FEFEA
:100CD0009FEFF7CFCF92DF92EF92FF920F931F9388
:100CE000CF93DF931F92CDB7DEB7182F6B017A0138
:100CF00019820E944606892B61F490E080E00F90F3
:100D0000DF91CF911F910F91FF90EF90DF90CF90E7
:100D10000895CE0101960E94370610688981181344
:100D2000ECCFCE0101960E9437068981813029F7E8
:100D30008FEF0E94D505F701808310E000E0F701F6
:100D400080818017110649F044F0C601800F911F81
:100D50000E9437060F5F1F4FF2CFCE0101960E940F
:100D6000370681E090E0CBCFCF93CFB7F894809156
:100D7000B001811127C0E4EAF0E08491E8EBF0E0F3
:100D80009491E82FF0E0EE0FFF1FE859FF4FA59177
:100D9000B491EC91E92321F461E08AE00E9403021E
:100DA00061E08AE00E9431028CB580618CBD8CB517
:100DB00080648CBD61E08DE00E94310261E08BE0D7
:100DC0000E9431028091B0018F5F8093B001CFBF4C
:100DD00061E08AE00E94310260E087E00E94310217
:100DE00061E089E00E94310261E08AE00E94030232
:100DF00061E08AE00E94030260E089E0CF910C94F8
:100E00000302CF93DF9300D0CDB7DEB7809170029D
:100E1000811105C00E94B40681E0809370020E9497
:100E2000A60560E08AE00E94030260E080E20E9482
:100E3000EC050E94A6058FEF89831A82AE014E5FF2
:100E40005F4FBE016F5F7F4F80E20E946A0661E0E4
:100E50008AE00E94030289810F900F90DF91CF9169
:100E60000895089590E080E008950F931F93CF9325
:100E70008C01C62F0E94BF046C2F6460C8010E94C1
:100E8000BF046C2F6B7FC8010E94BF0483EC90E00D
:100E90000197F1F7CF911F910F9108950F931F9331
:100EA000CF93DF938C01D62FC42F607F642B0E94D9
:100EB000350780E1D89FB00111246C2BC801DF9168
:100EC000CF911F910F910C94350740E061E08BE5C5
:100ED00093E00E944E078BE39FE10197F1F708959D
:100EE000CF93DF93CDB7DEB728970FB6F894DEBF68
:100EF0000FBECDBF98E0E0E0F1E0DE011196019079
:100F00000D929A95E1F790916303981708F48FEF8B
:100F100090E0880F991F21E030E02C0F3D1F820FD9
:100F2000931FFC016081606840E08BE593E02896A8
:100F30000FB6F894DEBF0FBECDBFDF91CF910C94FA
:100F40004E0741E00E944E0781E090E00895FB01CA
:100F500001900020E9F73197AF01461B570BDC01E8
:100F6000ED91FC910280F381E02D09948F929F9284
:100F7000AF92BF92EF92FF920F931F93CF93DF93A5
:100F8000CDB7DEB7A1970FB6F894DEBF0FBECDBFC9
:100F90007C01FA01CB0119A2223008F42AE08E016B
:100FA0000F5D1F4F822E912CB12CA12CBF01A501EA
:100FB00094010E94D311F901CA016A300CF5605DF9
:100FC000D8016E938D01232B242B252B79F790E0EC
:100FD00080E0109721F0BD01C7010E94A707A196EC
:100FE0000FB6F894DEBF0FBECDBFDF91CF911F913A
:100FF0000F91FF90EF90BF90AF909F908F900895CA
:10100000695CDECFCF92DF92EF92FF920F931F9336
:10101000CF93DF936B01770FEE08FF08F7FE1BC03D
:10102000EC016DE20E94C6008C0144275527BA01ED
:101030004C195D096E097F092AE0CE010E94B607AE
:10104000800F911FDF91CF911F910F91FF90EF9033
:10105000DF90CF9008952AE0B701A601DF91CF91EC
:101060001F910F91FF90EF90DF90CF900C94B607F7
:101070008F929F92AF92BF92CF92DF92EF92FF92A8
:101080000F931F93CF93DF937C018B016C0182E060
:10109000C80ED11C4701E5E08E0E911CD0E0C0E0E7
:1010A000F60141916F0150E070E060E02AE0C80174
:1010B0000E94B6075C016EE2C8010E94C6008A0D5C
:1010C0009B1DC80FD91FC814D90451F7F7014581DA
:1010D00050E070E060E02AE0C8010E94B6078C0F83
:1010E0009D1FDF91CF911F910F91FF90EF90DF90A7
:1010F000CF90BF90AF909F908F9008952F923F9286
:101100004F925F926F927F928F929F92AF92BF9217
:10111000CF92DF92EF92FF921F93CF93DF93EC0178
:101120006A017B01722EAB019601CB01B6010E94D0
:10113000CE116EE371E0811126C046015701E8949B
:10114000B7F82FEF3FEF4FE75FE7C501B4010E940B
:10115000CE1181110CC02FEF3FEF4FE75FE7C501C4
:10116000B4010E94041062E471E0181664F02FEFDD
:101170003FEF4FE75FE4C701B6010E945C1118160C
:10118000B4F466E471E0CE01DF91CF911F91FF903E
:10119000EF90DF90CF90BF90AF909F908F907F9017
:1011A0006F905F904F903F902F900C94A7072FEF78
:1011B0003FEF4FE75FECC701B6010E94041087FDC7
:1011C000E0CF20E030E0A901C701B6010E94041081
:1011D000312C212C87FF09C06DE2CE010E94C60090
:1011E0001C01F7FAF094F7F8F09410E060E070E07A
:1011F00080E09FE3711641F020E030E040E251E4EE
:101200000E9409101F5FF6CFA70196010E94980F58
:101210002B013C010E947B104B015C012AE0BC01C8
:10122000A401CE010E94B6077C01E20CF31C11233D
:10123000C1F1C501B4010E94AA109B01AC01C30118
:10124000B2010E94970F4B015C016EE2CE010E9439
:10125000C600E80EF91E115020F120E030E040E217
:1012600051E4C501B4010E9461112B013C010E94AF
:101270007B104B01B12CA12C2AE0B501A401CE01B9
:101280000E94B607E80EF91EC501B4010E94AA101B
:101290009B01AC01C301B2010E94970F4B015C019D
:1012A000DACFC701DF91CF911F91FF90EF90DF90D0
:1012B000CF90BF90AF909F908F907F906F905F90F6
:1012C0004F903F902F9008950C94A70785ED809341
:1012D000BC0080913D0290913E02A0913F02B091EE
:1012E00040020796A11DB11D23E0B695A7959795DD
:1012F00087952A95D1F72091BC0024FD03C0109258
:101300003B02089540913D0250913E0260913F02A0
:1013100070914002452B462B472B69F30097A1059E
:10132000B10541F025E32A95F1F700000197A109E5
:10133000B109E1CF80913C020C9418041F920F92E6
:101340000FB60F9211242F933F934F935F936F9398
:101350007F938F939F93AF93BF93EF93FF9381E816
:1013600092E00E944B01FF91EF91BF91AF919F914D
:101370008F917F916F915F914F913F912F910F903E
:101380000FBE0F901F9018951F920F920FB60F92DD
:1013900011242F938F939F93EF93FF93E0919102EA
:1013A000F09192028081E0919702F091980282FD83
:1013B0001BC0908180919A028F5F8F7320919B0256
:1013C000821741F0E0919A02F0E0EF57FD4F958FC0
:1013D00080939A02FF91EF919F918F912F910F909F
:1013E0000FBE0F901F9018958081F4CF1F920F921F
:1013F0000FB60F9211242F933F938F939F93AF9328
:10140000BF9380917D0290917E02A0917F02B09166
:1014100080023091630223E0230F2D3758F50196A7
:10142000A11DB11D2093630280937D0290937E02E3
:10143000A0937F02B0938002809164029091650234
:10144000A0916602B09167020196A11DB11D809323
:10145000640290936502A0936602B0936702BF9105
:10146000AF919F918F913F912F910F900FBE0F9051
:101470001F90189526E8230F0296A11DB11DD2CF0B
:101480001F920F920FB60F9211242F933F934F93F9
:101490005F936F937F938F939F93AF93BF93EF93DC
:1014A000FF938091B900887F803609F44AC0F0F537
:1014B000883209F4A7C018F5803109F49BC0B8F44C
:1014C000882309F4F9C0883009F494C0FF91EF91A2
:1014D000BF91AF919F918F917F916F915F914F914C
:1014E0003F912F910F900FBE0F901F90189588314C
:1014F00009F488C0803251F78093390214C08034D7
:1015000009F49DC040F48033B9F38833F9F6809331
:10151000390285ECB0C0803509F485C0883509F4FE
:1015200096C0883499F60E946609D0CF883909F4AC
:101530008CC038F5883729F050F4883611F08037A0
:1015400029F683E080933B021092140257C088383A
:1015500009F47BC0803919F0803809F0B7CF809149
:101560001402803208F071C0E091140281E08E0F05
:10157000809314028091BB00F0E0EC50FE4F80831A
:101580003DC0803B39F0E0F4803A09F479C0883AF4
:1015900009F09CCF84E080933B021092F3011092FB
:1015A000F201E0916A02F0916B0209958091F201DB
:1015B00081110FC081E08093F2011092D20109C025
:1015C000803C09F4A6CF883C09F4A3CF883B09F0FE
:1015D0007DCFE091F30181E08E0F8093F301F0E085
:1015E000EE52FE4F80818093BB009091F301809179
:1015F000F20129C0809116028093BB0085EC809394
:10160000BC0064CF9091380280913702981758F54A
:10161000E091380281E08E0F80933802F0E0E95EBD
:10162000FD4F8081E9CFE091380281E08E0F8093F9
:1016300038028091BB00F0E0E95EFD4F808390911D
:101640003802809137029817C8F285E8D8CFE09128
:10165000380281E08E0F809338028091BB00F0E069
:10166000E95EFD4F808380913A0281115CCF81E079
:101670008093150284EA8093BC0010923B0226CF2F
:1016800085EC8093BC0010923B0280911402803262
:1016900030F4E0911402F0E0EC50FE4F10826091C3
:1016A000140270E0E0916802F091690284EF91E029
:1016B0000995109214020ACF1092390234CFE1E852
:1016C000F2E01382128288EE93E0A0E0B0E084831F
:1016D0009583A683B7832CE031E03183208325EC0A
:1016E00030E03587248724EC30E03787268720ECEC
:1016F00030E0318B208B21EC30E0338B228B22ECDD
:1017000030E0358B248B26EC30E0378B268B118E26
:10171000128E138E148EEEE1F3E013821282848314
:101720009583A683B7838EE191E091838083EAE27B
:10173000F3E08CE391E09183808312821382148220
:101740001582E0E3F3E09183808312821382148296
:101750001582E6E3F3E09183808312821382148280
:101760001582ECE3F3E0918380831282138214826A
:101770001582E2E4F3E09183808312821382148263
:101780001582E7E6F3E0918380831282138214824C
:101790001582EBE5F3E01382128280E391E09183FE
:1017A000808387E2848380E1818782E08287138659
:1017B000A8E4B3E015968C93159786E116968C9362
:1017C0001697E0EBF0E0E4911796EC931797ECE9AD
:1017D000F0E0E4911896EC93189740E85EE360E03F
:1017E00070E01D964D935D936D937C935097089593
:1017F000CF93DF93CDB7DEB762970FB6F894DEBF15
:101800000FBECDBF789484B5826084BD84B58160FD
:1018100084BD85B5826085BD85B5816085BD8091BB
:101820006E00816080936E00109281008091810033
:10183000826080938100809181008160809381002B
:10184000809180008160809380008091B1008460ED
:101850008093B1008091B00081608093B00080914E
:101860007A00846080937A0080917A00826080930D
:101870007A0080917A00816080937A0080917A006A
:10188000806880937A001092C100E0919102F091FB
:10189000920282E08083E0918D02F0918E021082AC
:1018A000E0918F02F091900280E180831092990282
:1018B000E0919502F091960286E08083E091930298
:1018C000F0919402808180618083E0919302F09195
:1018D0009402808188608083E0919302F091940269
:1018E000808180688083E0919302F09194028081EE
:1018F0008F7D808310926F0210926E0210926D02A3
:1019000010926C020E94FA0384EC90E090936B02B8
:1019100080936A0285EC90E090936902809368025C
:101920001092600380916503823018F098E09093E4
:1019300060038093630362E370E080E090E00E94C4
:101940009202609166038BE593E00E94BF0468EE0B
:1019500073E080E090E00E94920260E38BE593E008
:101960000E9435070BE416E4C8010197F1F760E324
:101970008BE593E00E943507C8010197F1F760E31A
:101980008BE593E00E94350783E592E00197F1F73C
:1019900060E28BE593E00E9435076091600360622E
:1019A00040E08BE593E00E944E0784E08093610362
:1019B00040E06CE08BE593E00E944E070E946507D3
:1019C00082E08093620340E066E08BE593E00E9452
:1019D0004E0740E062E08BE593E00E944E078BE308
:1019E0009FE10197F1F788E08093660360E08BE563
:1019F00093E00E94BF0462E080914D030E94310297
:101A00002FB7F89480917D0290917E02A0917F0281
:101A1000B09180022FBF805D9740A109B1098093EA
:101A2000510390935203A0935303B093540387E35D
:101A300080935A0380E00E9470076AE471E08BE5AE
:101A400093E00E94640980917002811105C00E9498
:101A5000B40681E0809370020E94A60560E08AE0EF
:101A60000E94030262E081E10E94EC0540E06BE02D
:101A70008AE591E00E94070641E060E083EA91E098
:101A80000E9407060E94A6051A8619828E010F5F22
:101A90001F4FA801BE01665F7F4F81E10E946A0669
:101AA000892B11F48FEF8A8761E08AE00E9403029C
:101AB0008A855AE0F52E8F3FF1F465E1E62EF12C90
:101AC0000E940107833029F181E0E81AF10809F149
:101AD00064EF71E080E090E00E94920266E671E0BF
:101AE0008BE593E00E94640966E671E081E892E08C
:101AF0000E946409E5CF68E873E180E090E00E940D
:101B000092020E9401078D7FC1F6FA94F110F3CF83
:101B1000D4CF0E9465070E940107833009F0CCC032
:101B200080E00E94700768E671E08BE593E00E9418
:101B3000640981E00E9470078CE391E09B878A87AB
:101B40001C861D861E861F8687E0F80111928A95E5
:101B5000E9F789E792E09B838A8385E792E09E8399
:101B60008D8381E792E09987888780917002811147
:101B700005C00E94B40681E0809370020E94A60511
:101B800060E08AE00E94030261E081E20E94EC05CD
:101B90008FEF8A8B41E061E0CE0142960E940706FA
:101BA0000E94A605198A0E944606892BE9F1CE01FA
:101BB00041960E9437068989813AB1F5188ACE018B
:101BC00040960E9437065888552071F1B12CA12CFF
:101BD000652C712CA614B70404F58FEF0E94D5056F
:101BE000F8018083F12CE12CC82ED12CEC14FD04DB
:101BF00074F4F801818092808E0C9F1C8FEF0E94FC
:101C0000D505F4018083FFEFEF1AFF0AEFCF8FEFC6
:101C1000A81AB80A0D5F1F4FDDCFE3E05E1204C0C3
:101C2000CE0141960E94370661E08AE00E940302DD
:101C30008091790290917A02A0917B02B0917C020E
:101C40008C879D87AE87BF876BE573E0CE010A96D0
:101C50000E94380868EB7BE080E090E00E949202EE
:101C60000E94650734E4832E40E0A42E40E0B42EA9
:101C700080927C0080917A00806480937A008091C9
:101C80007A0086FDFCCF8091780000917900102FBA
:101C9000082F0E94C402882341F080914E038C30AB
:101CA00009F46CC098F48B3051F1C12CD12C90EC1C
:101CB000E92E9FE7F92E4DC080E00E94700767E78C
:101CC00071E08BE593E00E946409C4CF85518230B6
:101CD00060F790904A03692D70E0762F662766279B
:101CE0007F7780914B03682B90E080E00E94AA10E0
:101CF0002DEC3CEC4CEC5DE30E9461115BC060910B
:101D00004A0370E090E080E00E94AA102B013C01A1
:101D1000F0904B03F7FE0AC0AC019B0160E070E05D
:101D200080E89FEB0E94970F2B013C016F2D6F7095
:101D300070E090E080E00E94AC102DEC3CEC4CECAC
:101D40005DE30E946111A30192010E94980F6B0153
:101D50007C010E94C402882351F080914E038B3095
:101D600030F08D3080F18551823008F4CEC0412CA6
:101D7000512C80EC682E8FE7782E43C090904A0358
:101D8000692D70E090E080E00E94AA106B017C0158
:101D900060914B036F7070E090E080E00E94AC10A7
:101DA0002DEC3CEC4CEC5DE30E946111A701960127
:101DB0000E94980F6B017C0197FECBCFF7FAF0944D
:101DC000F7F8F094C6CF6091490370E090E080E0AE
:101DD0000E94AC102DEC3CEC4CEC5DE30E946111D8
:101DE0002B013C016091480370E090E080E00E948C
:101DF000AC109B01AC01C301B2010E94980F2B01F2
:101E00003C0166E871E081E892E00E946409B80153
:101E100081E892E00E9402086CE871E081E892E0BB
:101E20000E94640922E0B701A60181E892E00E94C5
:101E30007E0866E971E081E892E00E94640922E090
:101E4000B301A20181E892E00E947E0861EA71E09C
:101E500081E892E00E94A70780E00E94700764EA90
:101E600071E08BE593E00E946409B8018BE593E093
:101E70000E94020867EA71E08BE593E00E94640922
:101E8000A7019601C701B6010E94CE11882319F05F
:101E9000C12CD12C760121E0B701A6018BE593E09E
:101EA0000E947E0881E00E9470076BEA71E08BE57A
:101EB00093E00E946409A3019201C301B2010E9450
:101EC000CE11882319F0412C512C320121E0B301AD
:101ED000A2018BE593E00E947E086EEA71E08BE53B
:101EE00093E00E94640960ED77E080E090E00E945A
:101EF0009202A114B10409F4BBCE0E9437018823D9
:101F000009F4B6CE0E940000B3CE609148037091F0
:101F1000490376276727762790E080E00E94AA1081
:101F20002DEC3CEC4CEC5DE30E94611168CF505805
:101F3000BB27AA270E94AF0F0C9422110E941411F4
:101F400038F00E941B1120F039F49F3F19F426F459
:101F50000C9411110EF4E095E7FB0C940B11E92F92
:101F60000E94331158F3BA17620773078407950765
:101F700020F079F4A6F50C9455110EF4E0950B2E93
:101F8000BA2FA02D0B01B90190010C01CA01A001CB
:101F90001124FF27591B99F0593F50F4503E68F126
:101FA0001A16F040A22F232F342F4427585FF3CF67
:101FB000469537952795A795F0405395C9F77EF438
:101FC0001F16BA0B620B730B840BBAF09150A1F081
:101FD000FF0FBB1F661F771F881FC2F70EC0BA0F07
:101FE000621F731F841F48F4879577956795B7958F
:101FF000F7959E3F08F0B0CF9395880F08F099278A
:10200000EE0F9795879508950E94E71008F481E0F8
:1020100008950E941D100C9422110E941B1158F06B
:102020000E94141140F029F45F3F29F00C940B1129
:1020300051110C9456110C9411110E94331168F334
:102040009923B1F3552391F3951B550BBB27AA2771
:1020500062177307840738F09F5F5F4F220F331FAB
:10206000441FAA1FA9F335D00E2E3AF0E0E832D073
:1020700091505040E695001CCAF72BD0FE2F29D076
:10208000660F771F881FBB1F261737074807AB0748
:10209000B0E809F0BB0B802DBF01FF2793585F4FBD
:1020A0003AF09E3F510578F00C940B110C945611A8
:1020B0005F3FE4F3983ED4F3869577956795B7959F
:1020C000F7959F5FC9F7880F911D9695879597F9AA
:1020D0000895E1E0660F771F881FBB1F6217730723
:1020E0008407BA0720F0621B730B840BBA0BEE1F38
:1020F00088F7E09508950E943B1188F09F5798F06B
:10210000B92F9927B751B0F0E1F0660F771F881FFC
:10211000991F1AF0BA95C9F714C0B13091F00E9416
:102120005511B1E008950C945511672F782F882729
:10213000B85F39F0B93FCCF3869577956795B3953D
:10214000D9F73EF490958095709561957F4F8F4FAC
:102150009F4F0895E89409C097FB3EF490958095B1
:10216000709561957F4F8F4F9F4F9923A9F0F92F5D
:1021700096E9BB279395F695879577956795B795DB
:10218000F111F8CFFAF4BB0F11F460FF1BC06F5FC1
:102190007F4F8F4F9F4F16C0882311F096E911C0D3
:1021A000772321F09EE8872F762F05C0662371F0F4
:1021B00096E8862F70E060E02AF09A95660F771F08
:1021C000881FDAF7880F9695879597F90895990FE4
:1021D0000008550FAA0BE0E8FEEF16161706E807F1
:1021E000F907C0F012161306E407F50798F0621B12
:1021F000730B840B950B39F40A2661F0232B242BE7
:10220000252B21F408950A2609F4A140A6958FEF05
:10221000811D811D089597F99F6780E870E060E057
:1022200008959FEF80EC089500240A94161617066F
:1022300018060906089500240A94121613061406B7
:1022400005060895092E0394000C11F4882352F01A
:10225000BB0F40F4BF2B11F460FF04C06F5F7F4FD2
:102260008F4F9F4F089557FD9058440F551F59F0B9
:102270005F3F71F04795880F97FB991F61F09F3F73
:1022800079F087950895121613061406551FF2CF9C
:102290004695F1DF08C0161617061806991FF1CFEC
:1022A00086957105610508940895E894BB27662713
:1022B0007727CB0197F908950E94E71008F48FEF74
:1022C00008950E9474110C9422110E94141138F088
:1022D0000E941B1120F0952311F00C940B110C940B
:1022E000111111240C9456110E94331170F3959F13
:1022F000C1F3950F50E0551F629FF001729FBB27FD
:10230000F00DB11D639FAA27F00DB11DAA1F649F98
:102310006627B00DA11D661F829F2227B00DA11D4B
:10232000621F739FB00DA11D621F839FA00D611DD1
:10233000221F749F3327A00D611D231F849F600DF2
:10234000211D822F762F6A2F11249F5750409AF01B
:10235000F1F088234AF0EE0FFF1FBB1F661F771FA7
:10236000881F91505040A9F79E3F510580F00C9472
:102370000B110C9456115F3FE4F3983ED4F386950D
:1023800077956795B795F795E7959F5FC1F7FE2B12
:10239000880F911D9695879597F908950E94E710EB
:1023A000880B990B0895A1E21A2EAA1BBB1BFD01F5
:1023B0000DC0AA1FBB1FEE1FFF1FA217B307E40724
:1023C000F50720F0A21BB30BE40BF50B661F771F7C
:1023D000881F991F1A9469F760957095809590955C
:1023E0009B01AC01BD01CF010895EE0FFF1F0590C9
:1023F000F491E02D0994F894FFCF00004000140000
:102400005400000000006D01CD00FA00BA012B015C
:1024100009011D0100000000900463043207390423
:102420005C0449043A0400000000A107CD00320713
:1024300031070000000038086E616E00696E6600AA
:102440006F766600436F6E6E656374696E672057C2
:1024500069466900576F6B77692D4755455354009E
:102460002E005769466920436F6E6E65637465641C
:102470000057694669204661696C6564203A280006
:102480004761733A2000207C2054656D703A20002B
:102490002043207C2048756D3A20000D0A00473A01
:0A24A0000020543A00483A002500DD
:107E0000112484B714BE81FFF0D085E080938100F7
:107E100082E08093C00088E18093C10086E0809377
:107E2000C20080E18093C4008EE0C9D0259A86E02C
:107E300020E33CEF91E0309385002093840096BBD3
:107E4000B09BFECF1D9AA8958150A9F7CC24DD24C4
:107E500088248394B5E0AB2EA1E19A2EF3E0BF2EE7
:107E6000A2D0813461F49FD0082FAFD0023811F036
:107E7000013811F484E001C083E08DD089C08234E0
:107E800011F484E103C0853419F485E0A6D080C0E4
:107E9000853579F488D0E82EFF2485D0082F10E0AE
:107EA000102F00270E291F29000F111F8ED06801E7
:107EB0006FC0863521F484E090D080E0DECF843638
:107EC00009F040C070D06FD0082F6DD080E0C81688
:107ED00080E7D80618F4F601B7BEE895C0E0D1E017
:107EE00062D089930C17E1F7F0E0CF16F0E7DF06D8
:107EF00018F0F601B7BEE89568D007B600FCFDCFD4
:107F0000A601A0E0B1E02C9130E011968C91119780
:107F100090E0982F8827822B932B1296FA010C0160
:107F200087BEE89511244E5F5F4FF1E0A038BF0790
:107F300051F7F601A7BEE89507B600FCFDCF97BE46
:107F4000E89526C08437B1F42ED02DD0F82E2BD052
:107F50003CD0F601EF2C8F010F5F1F4F84911BD097
:107F6000EA94F801C1F70894C11CD11CFA94CF0C13
:107F7000D11C0EC0853739F428D08EE10CD085E9AC
:107F80000AD08FE07ACF813511F488E018D01DD067
:107F900080E101D065CF982F8091C00085FFFCCF94
:107FA0009093C60008958091C00087FFFCCF809118
:107FB000C00084FD01C0A8958091C6000895E0E648
:107FC000F0E098E1908380830895EDDF803219F02E
:107FD00088E0F5DFFFCF84E1DECF1F93182FE3DFCA
:107FE0001150E9F7F2DF1F91089580E0E8DFEE27F6
:047FF000FF270994CA
:027FFE00040479
:00000001FF
